:100000000C945B000C946D000C946D000C946D00CE
:100010000C946D000C946D000C946D000C946D00AC
:100020000C946D000C946D000C946D000C946D009C
:100030000C946D000C946D000C946D000C946D008C
:100040000C946D000C946D000C946D000C946D007C
:100050000C946D000C946D000C946D000C946D006C
:100060000C946D000C946D0007140A140D141014F8
:100070001314161419141C141F14626F6F742F625A
:100080006F6F742E726B00626F6F742F736462698E
:100090006F732E726B0056312E3120524B38362D35
:1000A0005352414D2020002B2C3B3D5B5D2A3F3CB1
:1000B0003A3E5C7C220011241FBECFEFD8E0DEBFA9
:1000C000CDBF23E0A0E0B1E001C01D92A83EB20781
:1000D000E1F70E94A5130C94B8140C9400000F9340
:1000E0001F93CF93DF938B01EC01080F191FC017EB
:1000F000D10721F00E94F7118993F9CFDF91CF91B9
:100100001F910F9108951F93CF93DF93C2E8D1E021
:100110001BE00E94F71193E0C735D90719F08883D7
:10012000219602C01093AF038111F3CFDF91CF91DD
:100130001F9108950F931F93CF93DF938B01EC01D1
:10014000080F191FC017D10721F089910E94FB11D8
:10015000F9CFDF91CF911F910F9108950F931F93C6
:10016000CF93DF931F92CDB7DEB78C01662359F092
:10017000D801ED918D01F0E0849169830E94FB111B
:1001800069816150F3CF0F90DF91CF911F910F9153
:100190000895EF92FF920F931F93CF93DF9300D0B8
:1001A000CDB7DEB7182FE12C82E0F82E2091800128
:1001B00030918101232B09F472C00E94BB1181117F
:1001C00075C02091DE033091DF033170A701421B1F
:1001D000530B5A8349832091800130918101241768
:1001E000350710F43A83298369817A81261B370BFE
:1001F000309381012093800182E891E00E94380DC4
:10020000811154C0112399F1809182019091830151
:100210009093820180938301809184019091850164
:10022000909384018093850187E40E94FB1162E032
:1002300070E082E891E00E949A0081E40E94FB1144
:1002400029813A81245031093A832983809184019C
:100250009091850101964091820150918301841B08
:10026000950B8217930730F49A83898303C002E8C1
:1002700011E002C006E811E08FE40E94FB1162E089
:1002800070E0CE0101960E949A0069817A81C801CE
:100290000E949A0081E40E94FB1110E087CF8091B8
:1002A000AF03811103C084E48093AF030F900F90DC
:1002B000DF91CF911F910F91FF90EF90089581E012
:1002C0000E94E11160E186E990E00C94AE0080911B
:1002D0008201811106C067E870E082E891E00E9427
:1002E0008D140E94140D81112EC08FEF9FEF9093FB
:1002F0008101809380010E94A011811124C080910E
:10030000DE039091DF03A091E003B091E1034091FF
:1003100080015091810160E070E084179507A60785
:10032000B70720F490938101809380018091800130
:1003300090918101049720F4109281011092800124
:1003400081E00C94C900089581E40E94E1111092AB
:1003500082010C9467010E94830081E40E94E111F4
:100360008091AF03811102C00C94670108951F931F
:10037000CF93DF93CDB7DEB766970FB6F894DEBFA5
:100380000FBECDBF0E94830062E070E0CE014596B3
:100390000E946F0081E40E94E1118091AF038111FE
:1003A0004EC0809182018A3311F41CE037C00E9454
:1003B000260D811144C0F9CFE2E6F3E0DE0111968B
:1003C000812F01900D928A95E1F780917E039091A3
:1003D0007F03A0918003B09181038D879E87AF87B3
:1003E000B88B8091780390917903A0917A03B091B2
:1003F0007B03898B9A8BAB8BBC8B85E40E94FB11B2
:1004000064E170E0CE0101960E949A0081E40E94AE
:10041000FB118D899E8901979E8B8D8B8D899E897D
:10042000892B51F00E94340A811109C08091620326
:100430008111C2CF83E401C08AE08093AF03669646
:100440000FB6F894DEBF0FBECDBFDF91CF911F91E5
:100450000895CF930E94F711C82F0E94830081E472
:100460000E94E111C53619F40E942E1113C0C43642
:1004700019F40E9425100EC0C11103C00E94140D72
:1004800009C0C33020F48C2F0E943F0A03C08CE0C7
:100490008093AF038091AF03811103C083E4809305
:1004A000AF03CF9108950E94830081E40E94E1117F
:1004B00080E00E943F0A86E40E94E1110E94F1114F
:1004C0000E94830081E40E94E1118091AF038111B9
:1004D00002C00E94340F8091AF03811103C083E4F6
:1004E0008093AF030895CF93DF9300D000D01F9285
:1004F000CDB7DEB70E94F711482F64E070E0CE015F
:1005000001964D830E946F0081E40E94E1114D81AC
:10051000443681F40E94A01181111DC083E40E9421
:10052000FB1164E070E08EED93E00E949A0010925F
:10053000AF0311C0453619F40E947211EDCF463653
:1005400019F40E943B11E8CF69817A818B819C81EB
:100550000E94010EE1CF0F900F900F900F900F901F
:10056000DF91CF910895CF92DF92EF92FF9262E0F8
:1005700070E080E891E00E946F0081E40E94E11148
:100580000E94A011811132C0C090DE03D090DF0321
:10059000E090E003F090E1030E94BB11811126C0BE
:1005A0008091DE039091DF03A091E003B091E1031D
:1005B000A7019601281B390B4A0B5B0BDA01C90115
:1005C000409180015091810160E070E084179507AF
:1005D000A607B70720F4909381018093800180E003
:1005E000FF90EF90DF90CF900C94C900FF90EF90B8
:1005F000DF90CF90089562E070E082E893E00E947F
:100600006F0081E40E94E111809182039091830345
:10061000892B39F50E94901029C086E40E94FB11B5
:1006200062E070E08EED93E00E949A000E94F1116A
:100630006091DE037091DF038091E0039091E1030C
:100640008E579E4F0E946F0081E40E94E1110E942C
:10065000F20E81110EC08091820390918303892B49
:1006600029F00E94720E8823C1F203C083E48093B4
:10067000AF030895289A2FEF80E792E02150804041
:100680009040E1F700C0000028982FEF80E792E04B
:10069000215080409040E1F700C00000EBCF0F9365
:1006A0001F93A091E6032091DE033091DF03409178
:1006B000E0035091E1032250310941095109B0E0B2
:1006C0000E9473140091AB031091AC032091AD0311
:1006D0003091AE03600F711F821F931F6093DE0382
:1006E0007093DF038093E0039093E1031F910F91D8
:1006F00008950F931F93AB01BC0100E012E020E0CE
:1007000030E082E891E00E94D3121F910F9108958A
:10071000AB01BC0182E891E00C942013CF92DF92F0
:10072000EF92FF926B017C018091D9039091DA03E3
:10073000A091DB03B091DC030097A105B10591F412
:100740006091D5037091D6038091D7039091D8031F
:100750006C0D7D1D8E1D9F1DFF90EF90DF90CF9043
:100760000C948803BC01CD016C0D7D1D8E1D9F1D59
:100770000E948803882321F381E0FF90EF90DF90AF
:10078000CF9008954F925F926F927F929F92AF9217
:10079000BF92CF92DF92EF92FF920F931F93CF936E
:1007A000DF93B82E8091E2039091E303A091E403DC
:1007B000B091E5038093DE039093DF03A093E00301
:1007C000B093E1034091DE035091DF036091E003B9
:1007D0007091E103A42E8091DD0381110BC0C52E21
:1007E000D62EE72EFF24C42FD0E0CC0FDD1FCE572E
:1007F000DE4F12C06A017B0187E0F694E794D7943C
:10080000C7948A95D1F7842F8068A82E84E0A89E8B
:10081000E0011124CE57D0406091D5037091D603EA
:100820008091D7039091D8036C0D7D1D8E1D9F1D67
:100830000E9479038111B6C0809184039091850351
:10084000A0918603B09187039090DD03E091DE03D1
:100850000091A4031091A5032091A6033091A70352
:100860004E2F5091DF036091E0037091E103AE1AC7
:10087000481759076A077B07B0F04093DE0350938F
:10088000DF036093E0037093E1030093A4031093EC
:10089000A5032093A6033093A703B11085C086E07B
:1008A0008093AF037FC0911021C0E881F981EF2BC5
:1008B000D9F4B11015C04093DE035093DF03609369
:1008C000E0037093E1030093A4031093A503209326
:1008D000A6033093A7038FEF9FEF9983888347C0C8
:1008E0000F5F1F4F2F4F3F4F229628C048805980DF
:1008F0006A807B80452846284728F9F4B11019C042
:100900004093DE035093DF036093E0037093E103B1
:100910000093A4031093A5032093A6033093A70389
:100920008FEF9FEFAFEFBFE088839983AA83BB83EC
:100930001EC00F5F1F4F2F4F3F4F24964F5F5F4FDB
:100940006F4F7F4FEA2DE40F09F092CF4093DE0303
:100950005093DF036093E0037093E1030093A403DB
:100960001093A5032093A6033093A7032BCF4093A6
:10097000E2035093E3036093E4037093E503C7013C
:10098000B601DF91CF911F910F91FF90EF90DF9013
:10099000CF90BF90AF909F907F906F905F904F905F
:1009A0000C948E0381E001C080E0DF91CF911F9114
:1009B0000F91FF90EF90DF90CF90BF90AF909F90FE
:1009C0007F906F905F904F9008958F929F92AF921B
:1009D000BF92CF92DF92EF92FF926B017C018091E8
:1009E000DD03882351F04601570157E0B694A794E0
:1009F000979487945A95D1F704C08D2C9E2CAF2CD8
:100A0000BB246091D5037091D6038091D703909158
:100A1000D803680D791D8A1D9B1D0E9479038111E1
:100A20005FC02091DD038091DE039091DF03A091F0
:100A3000E003B091E103EC2D211110C0F0E0EE0FC6
:100A4000FF1FEE57FE4F4081518160E070E0209122
:100A5000DE033091DF03318320830FC0EF7724E082
:100A6000E29FF0011124EE57FE4F408151816281D7
:100A7000738180839183A283B3830097A105B1051D
:100A8000B1F48091E2039091E303A091E403B0916B
:100A9000E503C816D906EA06FB0670F4C092E20325
:100AA000D092E303E092E403F092E50305C08F3FA8
:100AB0009F4FAF4FBF4041F44093DE035093DF039D
:100AC0006093E0037093E103C501B401FF90EF90E0
:100AD000DF90CF90BF90AF909F908F900C948E033B
:100AE00081E0FF90EF90DF90CF90BF90AF909F900C
:100AF0008F9008950F931F936091DE037091DF0331
:100B00008091E0039091E1036230710581059105C8
:100B1000D8F00091840310918503209186033091D1
:100B20008703601771078207930770F41092DE0342
:100B30001092DF031092E0031092E1030E94E5049B
:100B40008823D1F281E001C080E01F910F910895C8
:100B5000CF93C82F20E032E0E2E8F1E0DF01C901E5
:100B60001D920197E9F78091E603C81790F4609110
:100B7000DE037091DF038091E0039091E1036C0F3D
:100B8000711D811D911D0E948803811104C0CF5FDA
:100B9000EACF80E001C081E0CF9108950F931F93C9
:100BA0004091DD038091DE039091DF03A091E0038B
:100BB000B091E1030091D5031091D6032091D703A2
:100BC0003091D803E82F411121C0F0E0EE0FFF1F54
:100BD000492F5A2F6B2F7727400F511F621F731F0A
:100BE00002E010E09F018EED93E00E94D312882373
:100BF00011F081E05AC08091DE039091DF03A09153
:100C0000E003B091E103AA27BB2724C0EF7744E0BB
:100C1000E49FF0011124AC01BD01A7E07695679532
:100C200057954795AA95D1F7400F511F621F731F23
:100C300004E010E09F018EED93E00E94D312811139
:100C4000D8CF8091DE039091DF03A091E003B091B3
:100C5000E103BF708093DE039093DF03A093E00372
:100C6000B093E1038091DE039091DF03A091E00354
:100C7000B091E10382309105A105B10568F0409182
:100C800084035091850360918603709187038417D4
:100C90009507A607B70740F01092DE031092DF0316
:100CA0001092E0031092E10380E01F910F910895EC
:100CB0000F931F9380918903882309F482C0809148
:100CC0008A0390918B03019690938B0380938A0300
:100CD0000097A1F000918C0310918D0320918E0359
:100CE00030918F03011511052105310589F44091DB
:100CF000A9035091AA038417950751F410928B030E
:100D000010928A03109262031092890380E0C1C09E
:100D1000AC014F705527452B09F0A0C040919003BE
:100D20005091910360919203709193034F5F5F4FD5
:100D30006F4F7F4F409390035093910360939203C2
:100D400070939303011511052105310509F486C03F
:100D500074E0969587957A95E1F76091E60370E0E7
:100D60000E943714892B09F079C00093DE03109399
:100D7000DF032093E0033093E1030E94CE0581114D
:100D800087C08091DE039091DF03A091E003B091D2
:100D9000E1030097A105B10509F4B4CF80938C035A
:100DA00090938D03A0938E03B0938F030E944F0303
:100DB0008091DE039091DF03A091E003B091E10305
:100DC00045C010928B0310928A0381E080938903BF
:100DD0008091940390919503A0919603B09197030D
:100DE0008093DE039093DF03A093E003B093E103CD
:100DF00080938C0390938D03A0938E03B0938F0305
:100E00000E944F038091DE039091DF03A091E003E5
:100E1000B091E1038093900390939103A093920388
:100E2000B093930380918C0390918D03A0918E03D6
:100E3000B0918F03892B8A2B8B2B81F48091D10366
:100E40009091D203A091D303B091D40380939003E7
:100E500090939103A0939203B093930320918A03FC
:100E600030918B032F70332765E0220F331F6A9573
:100E7000E1F740919003509191036091920370913A
:100E8000930300E210E082E693E00E94D31201C0D7
:100E900081E01F910F9108950F931F938091980304
:100EA00090919903A0919A03B0919B030097A1059B
:100EB000B10589F48091940390919503A0919603D4
:100EC000B09197038093DE039093DF03A093E00338
:100ED000B093E10347C09170892B09F09DC08091C8
:100EE000A4039091A503A091A603B091A703019636
:100EF000A11DB11D8093A4039093A503A093A60305
:100F0000B093A7034091AB035091AC036091AD0344
:100F10007091AE038C019D01041B150B260B370B42
:100F2000C901B8012091E60330E040E050E00E94A2
:100F30004B14672B682B692B09F06EC08091A003BE
:100F40009091A103A091A203B091A3038093DE032B
:100F50009093DF03A093E003B093E1030E94CE05DA
:100F600081115CC08091DE039091DF03A091E003CA
:100F7000B091E103892B8A2B8B2B61F580E00E94D5
:100F8000C20381114BC08091980390919903A09165
:100F90009A03B0919B03892B8A2B8B2B89F4809128
:100FA000DE039091DF03A091E003B091E103809311
:100FB000940390939503A0939603B09397030AC06C
:100FC0006091A0037091A1038091A2039091A3036B
:100FD0000E94E5048091DE039091DF03A091E0037D
:100FE000B091E1038093A0039093A103A093A20387
:100FF000B093A3030E944F038091DE039091DF031F
:10100000A091E003B091E1038093A4039093A50322
:10101000A093A603B093A70380E001C081E01F91D5
:101020000F9108958091A8038823E9F11092A803F5
:10103000609190037091910380919203909193033A
:101040000E947903811131C0E0918A03F0918B03F2
:10105000EF70FF27A5E0EE0FFF1FAA95E1F7EE570F
:10106000FE4F80919C0390919D03A0919E03B091AF
:101070009F03848F958FA68FB78F80919403909153
:101080009503A0919603B0919703938F828FB58BB0
:10109000A48B609190037091910380919203909141
:1010A00093030C94880380E0089581E008952F92C3
:1010B0003F924F925F926F927F928F929F92AF92E8
:1010C000BF92CF92DF92EF92FF921F93CF93DF9365
:1010D000CDB7DEB72E970FB6F894DEBF0FBECDBFEB
:1010E00082E090E0A0E0B0E08093E2039093E3031D
:1010F000A093E403B093E503109288031092B00329
:101100008093DD030E948F12882311F081E072C169
:10111000C12CD12C7601C701B6010E94790381113F
:10112000F5CF809180039091810385359A4A21F013
:1011300081E08093AF035EC18091B8019091B901C5
:1011400086349144E9F08091D4019091D5018634A0
:101150009144B1F0CD28CE28CF2851F78091440397
:10116000882331F3C0904803D0904903E0904A03AC
:10117000F0904B03C114D104E104F10461F6D8CF1F
:10118000209198013091990140E050E021153105FE
:101190004105510541F42091A6013091A7014091EC
:1011A000A8015091A9014090950150909601612CA1
:1011B000712C411451046104710441F44090A20166
:1011C0005090A3016090A4017090A501209093011C
:1011D000309094013092AA032092A903809190014B
:1011E000909191019E878D87A0E0B0E089839A83DA
:1011F000AB83BC834C015D018C0C9D1CAE1CBF1CE1
:101200008092D5039092D603A092D703B092D803D0
:101210001092D9031092DA031092DB031092DC03D0
:1012200060919201623070F0DA01C901880D991D58
:10123000AA1DBB1D8093D9039093DA03A093DB030F
:10124000B093DC0310918F011093E603A62FB0E05A
:101250000E9473146D837E838F839887B4E03694E5
:101260002794BA95E1F7910140E050E029873A8749
:101270004B875C87C301B20129813A814B815C8134
:10128000621B730B840B950B2D813E814F8158851A
:10129000621B730B840B950B29853A854B855C8506
:1012A000621B730B840B950B212F30E040E050E064
:1012B0000E944B142E5F3F4F4F4F5F4F209384038C
:1012C0003093850340938603509387038D819E81DD
:1012D000AF81B885880E991EAA1EBB1E89859A8586
:1012E000AB85BC85880D991DAA1DBB1D8093AB03E2
:1012F0009093AC03A093AD03B093AE03273F9FE060
:1013000039074105510508F413CF273F3F4F4105E9
:10131000510558F48092D1039092D203A092D30346
:10132000B092D4031092DD0317C08091AE0190916A
:10133000AF01A091B001B091B1018093D10390931E
:10134000D203A093D303B093D403ED85FE85EF2B96
:1013500029F481E08093DD0380E04CC0FFEFCF1AD9
:10136000DF0AEF0AFF0AC701B6010E947903811163
:10137000CDCE8091820190918301A0918401B091A2
:10138000850182359245A146B14419F780916603E3
:1013900090916703A0916803B091690382379247E7
:1013A000A144B146B1F680917E0390917F03A09154
:1013B0008003B09181030097A545BA4A51F68FEF9B
:1013C0009FEFDC0180936A0390936B03A0936C03FF
:1013D000B0936D0380936E0390936F03A09370039B
:1013E000B0937103C701B6010E948803882309F4F2
:1013F000B0CF8CCE2E960FB6F894DEBF0FBECDBF09
:10140000DF91CF911F91FF90EF90DF90CF90BF9031
:10141000AF909F908F907F906F905F904F903F9094
:101420002F9008950E94771281110C94570880E044
:1014300008950E945806811113C0809162038111A2
:1014400002C01092890390918903992359F0853E37
:1014500081F38E3271F380916D0383FDEACF02C078
:1014600081E0089580E0089580918803823011F42E
:101470000C94190A83E08093AF0381E008958F9262
:101480009F92AF92BF92CF92DF92EF92FF920F9313
:101490001F93CF93DF93CDB7DEB72B970FB6F8949A
:1014A000DEBF0FBECDBF9091DD03923021F481E00D
:1014B0008093AF03A6C210928803282F2F77B22EF5
:1014C0004091940350919503609196037091970316
:1014D0004093A4035093A5036093A6037093A703BE
:1014E00010929C034091D1035091D2036091D30399
:1014F0007091D403992349F040939403509395033A
:10150000609396037093970308C01092940310920F
:101510009503109296031092970390918201911176
:1015200008C0B1105BC21092620380E180936D032A
:1015300002C202E811E08078A82E992493944BE02F
:1015400050E060E270E087E593E00E94AA14F801A1
:1015500070E0A8E09F012F5F3F4F8901608161111A
:1015600007C091E080E0711190E0092F182F1FC093
:101570006F32E9F06E3251F4772309F42FC2A830AC
:1015800009F02CC278E0ABE0F901E4CF7A1709F456
:1015900025C287EA90E0AC01FC01B491BB2309F4B9
:1015A00019C20196FA0144914613F5CF17C20130D2
:1015B000110509F413C2109289030E94190A8111BE
:1015C00010C2F0908903FF2051F04BE050E067E536
:1015D00073E082E693E00E949414892B71F7BB209C
:1015E00009F46DC10115110509F069C180919403D9
:1015F00090919503A0919603B09197038093A403D3
:101600009093A503A093A603B093A7032091DD03B5
:101610002130A9F44091D1035091D2036091D303BA
:101620007091D40384179507A607B70741F4109269
:10163000A4031092A5031092A6031092A703F11021
:101640003CC1BA948BE0E7E5F3E0DE01119601902E
:101650000D928A95E1F7BB2071F080E00E94C203F1
:101660008111BFC1C090DE03D090DF03E090E003A2
:10167000F090E10303C0C12CD12C76010E945806E2
:10168000811169C080918903882301F180916203EF
:10169000853E11F08111F2CF60919003709191031A
:1016A00080919203909193030E947903811153C01A
:1016B00040918A0350918B034F70552765E0440F8A
:1016C000551F6A95E1F74E575E4F42C080918A03DD
:1016D00090918B03892B21F485E08093AF033BC06D
:1016E00080E00E94C203811136C060918C0370912A
:1016F0008D0380918E0390918F030E94E5048111E8
:101700002AC08091DE039091DF03A091E003B091A5
:10171000E10380938C0390938D03A0938E03B09389
:101720008F030E944F038091DE039091DF03A0910D
:10173000E003B091E1038093900390939103A09311
:101740009203B093930380E00E94A80542E851E021
:101750004115510569F41092DE031092DF031092D7
:10176000E0031092E103C701B6010E94E50439C10C
:1017700020E2FA0111922A95E9F72BE0FE01319659
:10178000DA0101900D922A95E1F760919003709132
:1017900091038091920390919303B11020C00E9415
:1017A000880381111EC11092940310929503109228
:1017B00096031092970310929C0310929D0310922F
:1017C0009E0310929F031092980310929903109217
:1017D0009A0310929B0381E08093880304C110E177
:1017E000FA011387D38EC28E4701AA24BB24958A9F
:1017F000848A0E9488038111F4C0C092DE03D092D3
:10180000DF03E092E003F092E1030E944F0381E0E6
:101810000E94A8054BE050E060E270E082E891E0B1
:101820000E94AA140EE20093820110938D01D092BF
:101830009D01C0929C0190929701809296014BE08D
:1018400050E060E270E082EA91E00E94AA14009306
:10185000A2010093A3011093AD0180919C03882302
:1018600081F08091940390919503A0919603B0919B
:1018700097039093BD018093BC01B093B701A093EF
:10188000B6016091DE037091DF038091E0039091D7
:10189000E1032B960FB6F894DEBF0FBECDBFDF91EC
:1018A000CF911F910F91FF90EF90DF90CF90BF905D
:1018B000AF909F908F900C94880388E090C0FF2099
:1018C00009F48CC040917C0350917D0360E070E08E
:1018D0008091DD03882369F08091760390917703EE
:1018E000A0E0B0E0DC0199278827482B592B6A2B10
:1018F0007B2B4093940350939503609396037093CE
:10190000970301151105B9F080916D0384FF66C03E
:10191000AA2071F0C090A403D090A503E090A60384
:10192000F090A7034C155D056E057F0509F456C0C0
:1019300090929C0304CE1092890380917E03909133
:101940007F03A0918003B091810380939C039093C7
:101950009D03A0939E03B0939F031092980310924F
:10196000990310929A0310929B0381E0809388035D
:1019700080916D0384FF03C082E08093880380918F
:10198000B003813081F580918803813061F5409109
:10199000B8035091B9036091BA037091BB03809171
:1019A000900390919103A0919203B09193034817F3
:1019B00059076A077B07B9F42091B2033091B3034A
:1019C00080918A0390918B032817390761F4109254
:1019D000B00309C08FED860F8F3538F084E0809317
:1019E000AF0381E00EC080E00CC08FE9860F8A3122
:1019F00008F46052E72FF0E0E95AFC4F60837F5F04
:101A0000C3CD2B960FB6F894DEBF0FBECDBFDF91CE
:101A1000CF911F910F91FF90EF90DF90CF90BF90EB
:101A2000AF909F908F90089580E00E943F0A8111AF
:101A300009C080918803813039F01092880384E0D6
:101A40008093AF0381E0089580E0089580E00E94D4
:101A50003F0A811109C080918803823039F01092C9
:101A6000880384E08093AF0381E0089580E00895C7
:101A7000AF92BF92CF92DF92EF92FF920F931F939C
:101A8000CF93DF936C01EB0180918803813021F4C7
:101A9000A12C72E0B72E2EC083E08093AF035FC00D
:101AA0000E944C0781115BC02091980330919903EB
:101AB0003170C501821B930B7E018C179D0708F4C2
:101AC0007C01C114D104C9F48091980390919903C9
:101AD000A0919A03B0919B038E0D9F1DA11DB11D76
:101AE0008093980390939903A0939A03B0939B03D8
:101AF000CE19DF092097A1F611C04091A40350919F
:101B0000A5036091A6037091A7038701C6010E94F7
:101B1000D312811124C0CE0CDF1CD6CF8091980344
:101B200090919903A0919A03B0919B0340919C03DB
:101B300050919D0360919E0370919F034817590730
:101B40006A077B0780F480939C0390939D03A09386
:101B50009E03B0939F0381E08093A80304C010927A
:101B6000880381E001C080E0DF91CF911F910F9148
:101B7000FF90EF90DF90CF90BF90AF9008954F927D
:101B80005F926F927F928F929F92AF92BF92CF920D
:101B9000DF92EF92FF920F931F93C0909C03D0901F
:101BA0009D03E0909E03F0909F0300919803109195
:101BB000990320919A0330919B032B01612C712C86
:101BC00046015701801A910AA20AB30A84149504A7
:101BD000A604B70418F4B601601B710BFA017183F7
:101BE00060831F910F91FF90EF90DF90CF90BF9097
:101BF000AF909F908F907F906F905F904F900C94DC
:101C0000380D8F929F92AF92BF92CF92DF92EF9258
:101C1000FF926B017C018091980390919903A091B0
:101C20009A03B0919B03413029F4C80ED91EEA1ED5
:101C3000FB1E0EC0423061F440919C0350919D0305
:101C400060919E0370919F03C40ED51EE61EF71E81
:101C5000C816D906EA06FB0628F0C81AD90AEA0A05
:101C6000FB0A08C0109298031092990310929A03ED
:101C700010929B034601570181E0C81680E8D80600
:101C8000E104F10428F0812CE0E89E2EA12CB12C77
:101C9000B40180E090E00E94380D811119C0C8188D
:101CA000D908EA08FB0831F70E94120880919803CE
:101CB00090919903A0919A03B0919B038093DE03C6
:101CC0009093DF03A093E003B093E10380E001C0B1
:101CD00081E0FF90EF90DF90CF90BF90AF909F900A
:101CE0008F900895CF92DF92EF92FF920F931F9300
:101CF000CF93DF9380918803813011F083E008C097
:101D000000918203109183030115110521F489E0EC
:101D10008093AF0359C0C0909803D0909903E0908E
:101D20009A03F0909B030E944C0781114DC081E003
:101D3000D822C0E0D2E0CC19DD090C171D0708F449
:101D4000E8018091980390919903A0919A03B09132
:101D50009B038C0F9D1FA11DB11D40919C035091B1
:101D60009D0360919E0370919F03481759076A076E
:101D70007B0758F480939C0390939D03A0939E034C
:101D8000B0939F0381E08093A803C11582E0D80738
:101D900079F4D093DF03C093DE0380919803909190
:101DA000990391709093E1038093E00380E011C068
:101DB0006091A4037091A5038091A6039091A7035D
:101DC0000E947903882329F30E9412081092880345
:101DD00081E0DF91CF911F910F91FF90EF90DF9005
:101DE000CF90089580918803813021F083E0809323
:101DF000AF0336C06091A4037091A5038091A60340
:101E00009091A7030E94880381112AC02091DE03CC
:101E10003091DF038091980390919903A0919A03E8
:101E2000B0919B03820F931FA11DB11D8093980356
:101E300090939903A0939A03B0939B03809182039C
:101E400090918303821B930B90938303809382036F
:101E5000892B11F080E008950E9412088823D1F3A5
:101E60001092880381E008958F929F92AF92BF9263
:101E7000CF92DF92EF92FF920F931F93CF93DF9356
:101E8000CDB7DEB765970FB6F894DEBF0FBECDBFF6
:101E900080918803811104C083E08093AF0319C04F
:101EA00000918A0310918B03C0909003D09091030E
:101EB000E0909203F09093038090940390909503A8
:101EC000A0909603B090970381E80E943F0A882370
:101ED00011F091E08CC0109288031092B003C701FA
:101EE000B6010E9479038111F4CFC8018F70992740
:101EF000A5E0880F991FAA95E1F78E579E4F25E11F
:101F0000FC013B96DE01119601900D922A95E1F7B6
:101F100025EEFC012083C701B6010E9488038111D0
:101F2000D8CF60919003709191038091920390912A
:101F300093030E9479038111CCCF00918A03109101
:101F40008B030F701127F5E0000F111FFA95E1F7D1
:101F50000E571E4F85E1FE013196D8011B96019068
:101F60000D928A95E1F760919003709191038091B1
:101F70009203909193030E9488038111AACFF801E4
:101F8000838584FF33C08092DE039092DF03A092AA
:101F9000E003B092E1030E944F036091DE03709171
:101FA000DF038091E0039091E1030E9479038111A6
:101FB00090CF8091A4039091A503A091A603B09126
:101FC000A7039093BD018093BC01B093B701A09388
:101FD000B6016091DE037091DF038091E003909180
:101FE000E1030E94880391E0811101C090E0892FF4
:101FF00065960FB6F894DEBF0FBECDBFDF91CF91CF
:102000001F910F91FF90EF90DF90CF90BF90AF9016
:102010009F908F900895CF93DF93EB01BC0182E8EE
:1020200091E00E94B11480E00E943F0A811109C032
:10203000BE0182E891E00E94B114DF91CF910C942F
:10204000340F81E0DF91CF910895CF92DF92EF922C
:10205000FF92CF93DF9380E00E943F0A811158C026
:10206000109288031092B00380916203811102C024
:1020700084E01BC0C0909003D0909103E090920345
:10208000F0909303C0918A03D0918B0380916D03EC
:1020900084FF0EC0109289030E94190A811138C072
:1020A00080918903882321F087E08093AF0330C0BB
:1020B000C701B6010E94790381112AC0FE01EF70A9
:1020C000FF27B5E0EE0FFF1FBA95E1F7EE57FE4F81
:1020D00085EE8083C701B6010E948803811118C074
:1020E0008091940390919503A0919603B0919703EA
:1020F0008093DE039093DF03A093E003B093E103AA
:10210000DF91CF91FF90EF90DF90CF900C947A0504
:1021100081E0DF91CF91FF90EF90DF90CF90089515
:1021200080918803813021F083E08093AF0358C011
:102130008091980390919903A0919A03B0919B0389
:10214000892B8A2B8B2BC9F4809194039091950352
:10215000A0919603B09197038093DE039093DF03E1
:10216000A093E003B093E1031092940310929503BF
:10217000109296031092970318C08FEF9FEFAFEF66
:10218000BFE08093DE039093DF03A093E003B0935E
:10219000E1036091A0037091A1038091A20390914B
:1021A000A3030E94E50481111BC00E947A058111DE
:1021B00017C08091980390919903A0919A03B091D0
:1021C0009B0380939C0390939D03A0939E03B093E5
:1021D0009F0381E08093A8030E941208882321F0C6
:1021E0001092880381E0089580E008950F931F9373
:1021F000CF93DF93EC016115710531F4DF91CF913D
:102200001F910F910C94901070938303609382033D
:102210000E94720E882311F081E01BC00091DE0342
:102220001091DF038091E0039091E103A801BE01CA
:102230008E579E4F0E94A114C00FD11F0E94F20E14
:102240008111EACF8091820390918303892B01F75A
:1022500080E0DF91CF911F910F910895A8E8B3E03E
:10226000E0EBF3E08C9190819D93819383E0E13DDD
:10227000F807C1F70895109288031092A4031092F2
:10228000A5031092A6031092A70381E00E94C20347
:10229000811126C02091A4033091A5034091A6038B
:1022A0005091A7038AE056954795379527958A95CB
:1022B000D1F72F5F3F4F4F4F5F4F5695479537955B
:1022C0002795A091E603B0E00E9473146093DE03AB
:1022D0007093DF038093E0039093E10380E008951F
:1022E00081E008958091DD03823021F481E08093C4
:1022F000AF030895209184033091850340918603B4
:10230000509187036AE056954795379527956A95CA
:10231000D1F72F5F3F4F4F4F5F4F569547953795FA
:102320002795A091E603B0E00E9473146093DE034A
:102330007093DF038093E0039093E10380E00895BE
:1023400080918803813029F083E08093AF0381E09E
:10235000089580919C0390919D03A0919E03B0915C
:102360009F038093DE039093DF03A093E003B09379
:10237000E10380E0089580918803813029F083E0B3
:102380008093AF0381E00895809198039091990321
:10239000A0919A03B0919B038093DE039093DF0397
:1023A000A093E003B093E10380E0089586B1882311
:1023B000E9F386B18111FDCF86B18F7309F0F6CFB5
:1023C0000895CF93DF931F92CDB7DEB789830E9424
:1023D000D6119FEF9AB989818BB90F90DF91CF9178
:1023E00008950E94D6111AB88FEF8BB908950E94F4
:1023F000D61189B10895CF93DF931F92CDB7DEB781
:1024000089830E94D61189818BB90F90DF91CF917A
:1024100008958EBD0DB407FEFDCF08958FEF8EBDDC
:102420000DB407FEFDCF8EB50895FF920F931F9355
:10243000CF93DF9300D000D0CDB7DEB7182F4983FC
:102440005A836B837C838091E703811113C011351C
:1024500011F0183579F449815A816B817C8189E0CA
:10246000440F551F661F771F8A95D1F749835A83FA
:102470006B837C832A98812F0E9409128C810E9491
:1024800009128B810E9409128A810E940912898196
:102490000E940912183411F487E801C085E90E94EE
:1024A0000912F12C0E940E12082F8F3F19F4FA9492
:1024B000C9F70FC081110DC01A3759F40E940E12CE
:1024C00080748093E7030E940E120E940E120E94F5
:1024D0000E122A9A0E940E12802F0F900F900F90CA
:1024E0000F90DF91CF911F910F91FF900895CF939F
:1024F000C0E040E050E0BA0187E70E94151240E0DA
:1025000050E060E070E489E60E941512882321F013
:10251000C15079F781E001C080E0CF9108951F9309
:10252000CF93DF932A9A82E58CBD1DBCDAE010922E
:10253000E703CAE00E940E12C150E1F740E050E00C
:10254000BA0180E40E941512813011F54AEA51E087
:1025500060E070E088E40E941512182F0E94771244
:10256000811116C0112341F040E050E0BA018AE722
:102570000E94151281110CC080E58CBD8DB5816063
:102580008DBD8FEC97E00197F1F700C0000006C009
:10259000D15069F682E08093AF03C1E08C2FDF91C8
:1025A000CF911F910895CF92DF92EF92FF920F93F8
:1025B0001F93CF93DF93EC01790181E50E941512FF
:1025C000811130C02A98C12CD12C0E940E128E3F4E
:1025D00039F081E0C81AD108C114D104B1F722C082
:1025E000C12C92E0D92E0E940E12E114F10421F0C8
:1025F00081E0E81AF10807C00115110521F001502A
:1026000011098883219681E0C81AD108C114D10428
:1026100051F70E940E120E940E122A9A0E940E1268
:1026200080E005C02A9A82E08093AF0381E0DF91C9
:10263000CF911F910F91FF90EF90DF90CF90089571
:102640000F931F93CF93DF93182F092F88E50E94D4
:102650001512882331F02A9A82E08093AF0381E03B
:1026600027C02A988EEF0E940912C12FD02F8E0109
:102670001E5F89910E940912C017D107D1F78FEF11
:102680000E9409128FEF0E9409120E940E128F7190
:10269000853009F7C0E0D0E00E940E128F3F21F094
:1026A00021972097C9F7D7CF2A9A0E940E1280E06F
:1026B000DF91CF911F910F91089582E58CBD1DBCD4
:1026C00008958EBD0DB407FEFDCF8EB508958FEF32
:1026D0008EBD0DB407FEFDCF8EB5089580E58CBD8F
:1026E0008DB581608DBD8FEC97E00197F1F700C04B
:1026F00000000895AF93EF93FF93F1E0E6B1EF731D
:10270000A3B1A074EA2BE081EBB9E6B1EF73A3B1FA
:10271000A074EA2BE434B9F7E081EBB9E6B1EF73CA
:10272000A3B1A074EA2BE434C9F3E03461F7E0818B
:10273000EBB9E6B1EF73A3B1A074EA2BE034C9F3AF
:10274000E03009F7FF91EF91AF918FEF8AB917B899
:102750008DE284B981E185B92FEF80E792E02150C5
:1027600080409040E1F700C000000E9457088111AE
:102770000E943A036AE770E082E891E00E948D14BB
:102780000E94140D8111F4CF0E94A0118111F0CF8D
:102790006091DE037091DF038091E0039091E1038B
:1027A0008B019C0107501109210931090A371105D4
:1027B00021053105E8F680E091E00E94380D811195
:1027C000D7CF289A0CE01FEF0E947A13289A80E452
:1027D0000E94E11181E40E94FB110E94120A8823E9
:1027E00021F082E00E94FB1134C082E40E94FB11C0
:1027F0000E94F1110E94F7111092AF0390E089300E
:10280000910500F5FC01EC5CFF4F0C946D140E94E7
:10281000A4011AC00E945F0117C00E94AB0114C03E
:102820000E94B70111C00E9429020EC00E947302CB
:102830000BC00E94B30208C00E94FB0205C00E94A8
:10284000530202C00093AF038091AF0381110E9435
:10285000E1110E94D6111AB928982FEF84E39CE069
:10286000215080409040E1F700C00000ADCFAA1B8E
:10287000BB1B51E107C0AA1FBB1FA617B70710F06B
:10288000A61BB70B881F991F5A95A9F7809590959D
:10289000BC01CD010895A1E21A2EAA1BBB1BFD01AC
:1028A0000DC0AA1FBB1FEE1FFF1FA217B307E4072F
:1028B000F50720F0A21BB30BE40BF50B661F771F87
:1028C000881F991F1A9469F7609570958095909567
:1028D0009B01AC01BD01CF010895EE0FFF1F0590D4
:1028E000F491E02D09940E947E14A59F900DB49F51
:1028F000900DA49F800D911D11240895A29FB001F9
:10290000B39FC001A39F700D811D1124911DB29F23
:10291000700D811D1124911D0895FB01DC010590AE
:102920000D920020E1F70895FB01DC0104C08D91B8
:102930000190801921F441505040C8F7881B990B31
:102940000895FB01DC0102C001900D9241505040FE
:10295000D8F70895DC0101C06D9341505040E0F775
:102960000895FB01DC0101900D920020E1F708952C
:04297000F894FFCF09
:00000001FF
