:040000000C94530009
:100004000C9400000C9400000C9400000C9400006C
:100014000C9400000C9400000C9400000C9400005C
:100024000C9400000C9400000C9400000C9400004C
:100034000C9400000C9400000C9400000C9400003C
:100044000C9400000C9400000C9400000C9400002C
:100054000C9400000C9400000C9400000C9400001C
:100064000C9400002B2C3B3D5B5D2A3F3C3A3E5CEC
:100074007C22000056312E302031302D30352D3287
:100084003031342000626F6F742F736462696F7350
:100094002E726B00626F6F742F626F6F742E726BAF
:1000A4000000F894EE27EFBBF1E0F5BFE5BFF8E1FF
:1000B400A895A4B7A77FA4BFF0936000E093600065
:1000C4008DE0A2E0BB27ED938A95E9F780E098E004
:1000D400A0E0B1E0ED930197E9F7E0E0EEBBEFEFCC
:1000E400EDBFE8E0EEBFC0E0D2E00C94670D359BB5
:1000F400FECF3599FECFE6B1EF7309F408957ECFB4
:100104000895F5DFEFEFEAB9E881EBB90C947604D2
:10011400EEDFE0E0EAB9EFEFEBB90895E8DFE9B12B
:100124000895E5DFE881EBB90C9476040E94880E0B
:10013400E0E0F0E0FA93EA93E0E0F2E00E94930E4C
:10014400AFC20E94880E0E94A70AAAC22C97E2E0BE
:10015400F0E060E070E00E94970E0E94A00EE2E0E2
:100164004E2E0E94380AE03011F0E1E05FC1E0E079
:10017400E887E987EA87EB870E94A60E0E94AB0E08
:1001840011F0E1E053C1E0917E04F0917F04E53584
:10019400AAEAFA0749F5E091B602F091B702E6340B
:1001A400A1E4FA0729F1E091D202F091D302E634F6
:1001B400A1E4FA07E9F0A885B9858A859B850E94A0
:1001C4006C1221F4E0914204E03009F40DC0E09196
:1001D4004604F091470460914804709149040E94D8
:1001E400B10E0E94641241F6E1E0E09384041EC162
:1001F400E0919602F0919702662777270E94B60E47
:100204000E94BB0E0E94641251F4E091A402F0918A
:10021400A5026091A6027091A7020E94B60EE09119
:100224009302F09194020E94C00E0E94C50E0E9497
:10023400641251F4E091A002F091A1026091A20233
:100244007091A3020E94C80E509091026090920295
:10025400E0918E02F0918F02A885B9858A859B85ED
:100264000E94CB0EE0938704F09388046093890482
:1002740070938A04E0E0E0938B04E0938C04E093B1
:100284008D04E0938E04A0919002A23060F00E944D
:10029400D00E0E945D11E0938B04F0938C04609364
:1002A4008D0470938E0430908D02E0919002F0E002
:1002B400AC81BD818E819F810E94DA0E0E94B60EB0
:1002C400E0918E02F0918F020E94DF0E662777275D
:1002D4000E9457120E946711AC81BD818E819F815B
:1002E4000E946711DF01CB01E52DF62D0E949B11C1
:1002F400662777270E946C110E94E20E0E94B311B8
:100304000E94EB11EE5FFF4F6F4F7F4FE0938F041E
:10031400F093900460939104709392040E94D00E21
:100324000E946211E52DF62D0E949B110E94CB0EB6
:10033400E0939704F09398046093990470939A045B
:100344000E94E50EA73FEFE0BE07E0E08E07E0E085
:100354009E0708F449CF0E94E50EA73FEFEFBE07C2
:10036400E0E08E07E0E09E0740F40E94D00E0E9479
:100374005D110E94EE0E442458C0E091AC02F0914D
:10038400AD026091AE027091AF020E94EE0EA09198
:100394008E02B0918F020E94681210F00C94150224
:1003A4000E94A60E0E94F70E0E94B10E0E94AB0E90
:1003B40011F0E1E03BC0A0918002B09181028091F4
:1003C400820290918302A235E2E5BE07E1E68E0740
:1003D400E1E49E07D1F4E0916404F0916504609136
:1003E400660470916704E237A2E7FA07A1E46A079A
:1003F400A1E67A0751F40E94FC0EE030A0E0FA076F
:10040400A5E56A07AAEA7A0709F00DC0E8E6F4E070
:100414000E94050FECE6F4E00E94050F0E940C0F09
:1004240011F0E1E003C0E1E04E2EE0E02C960895E7
:100434000E94FD09E03009F403C188DE0895249781
:10044400E0917A04F0917B040E94C00E442071F084
:10045400E0917404F0917504662777270E94AE1129
:100464000E94DF0E0E9471110E94C80E0E94C50EE8
:1004740017C14420B9F40E94130F0E94200F0E9458
:10048400270FE2E0EA9F1A920A92E2E0F0E00E946B
:10049400930EE03099F50E94360FEF7FFF7F607076
:1004A400707019C00E94130F0E943F0F0E94270F03
:1004B400BB27E0E8F0E00E9413120E9496110E940C
:1004C400460F0E94930EE030C9F40E94360FEF7F6E
:1004D400FF7F6F7F7F70E0938004F09381046093CB
:1004E4008204709383040E944B0F0E94540F18F0EF
:1004F4000E945C0F10F00E94680FA2C0ACC00E9462
:10050400360FE250F040604070400E94720F0E942B
:10051400DA0E0E94750F0E945D110E947E0F0895ED
:10052400E091A004E03011F40C94DD02A1EAB4E0FF
:10053400ED91FD913196FE93EE93A091A104B091BB
:10054400A204109759F00E94870F39F4A091A104D6
:10055400B091A2045A166B0609F008C00E94920FCB
:10056400E0E0E0936004E093A0046AC00E94990F65
:10057400EF7001F5A7EAB4E00E949E0F0E94870F76
:1005840059F00E94990F0E949B11DF010E94E20E14
:100594000E941012309709F00DC00E94A40F0E940F
:1005A4007E0F67DFE03009F056C00E94AD0FC1F244
:1005B4000E94B10F1AC00E94920FE1E0E093A004E0
:1005C4000E94C60F0E947E0F0E94B10F0E94A40FCA
:1005D4000E94641251F40E94CF0FE093A704F09399
:1005E400A8046093A9047093AA040E94D80F0E94DF
:1005F400DD0F0E9452120E94990F0E94E60FFA9397
:10060400EA93E0E2F0E00E94930E089589DFE0307F
:10061400D1F4E0916004E03019F4E0E0E093A00448
:10062400E091A004E03061F0A0916004A53E71F374
:10063400A0916004AE3251F3E0916B04E87011F4C0
:10064400E0E00895E3CF07C0A0919F04A23029F011
:10065400E3E0E0938404E1E00895D8DF0895E091B5
:100664008B04F0918C0460918D0470918E040E942F
:10067400641281F00E94C50EA0918B04B0918C0489
:1006840080918D0490918E040E94EC0FE03011F063
:10069400E1E006C00E94C50E0E94F20F0E94EC0F1A
:1006A4002496089524970E947E120E94FB0F0E94B4
:1006B4007E0F0E944B0F0E94200F0E94B60E1091D5
:1006C40080040E9404100E9407109F01442099F0A6
:1006D4000E944B0F0E943F0F0E94B60E1068E0E884
:1006E400F2E0E050F240DF010E9404100E949611F3
:1006F400EA0FFB1F9F010E94D00E0E945D110E9411
:10070400AB0E09F044C00E945C0F48F0E885E0306D
:1007140011F0E0E03DC0E6E0E093840438C04420FA
:1007240091F4D9010E942512309751F4E885E03004
:1007340029F4EFEFFFEFED93FC9321C00E940E101C
:100744002E5F3F4F14C0D9010E9429120E946412E7
:1007540061F4E885E03039F4EFEFFFEF6FEF7FE00D
:100764000E9434120CC00E940E102C5F3F4FA0E870
:10077400B4E00E949E0F1F5F103029F69ACF0E94AA
:10078400360F0E94970E0E94111069DF01C0E1E04C
:100794000E9485122996089528971A930A930E9415
:1007A40015100E943F0FEE83FF83688779874420EA
:1007B40041F40E9415100E94200FEE83FF83688786
:1007C4007987EE81FF81688579850E94F20F0E9406
:1007D4005D110E94AB0E11F0E1E055C0442091F48C
:1007E400EA85F0E00E9407108F01D8010E942512CB
:1007F400662777270E941A100E941F10D801ED93D4
:10080400FC9317C0AA85BB27E0E8F0E00E9413120E
:10081400A0E8B2E00E949611EA0FFB1F8F01D801F5
:100824000E9429120E941A100E94360FD8010E94B9
:1008340034120E94AD0F69F40E94FB0F0E94151040
:100844000E94771230F4EA85FB856C857D850E94D1
:10085400970E0E944B0FAF3FEFEFBE07EFEF8E07EF
:10086400EFE09E0729F00E944B0F0E946C1221F4C6
:100874000E9424100E947E0FEE81FF816885798595
:100884000E945212ECDE198108812E960895E881A7
:10089400F981AC81BD815A96ED93FC930E94C50EFB
:1008A4000E94A911AC81BD815496ED93FC93D3C2EF
:1008B4000E942910E0E0EA93E0E0F2E00E942E10AA
:1008C400A881A31580F4E881F0E00E944B0F0E94F8
:1008D400B3110E94EC0FE03011F0E1E005C0E881B3
:1008E400EF5FE883EDCFE0E02196089519DEE03074
:1008F40051F5E091A004E030A9F0A0916004A53E78
:1009040021F0A0916004A03061F40E94DD0F0E94E8
:10091400AB0EC9F40E94990F0E94E60FE058FD4FF8
:100924000895E4CF0E94990F309721F4E5E0E09315
:10093400840409C00E94321031F40E94A40F0E9462
:100944003810E03019F0E0E0F0E008950E94B10FB3
:10095400E0E0EA93ADDFE0E8F2E008950E947E1261
:10096400E2E0E41511F4E1E0C9C0E0E0E0939F04A3
:10097400EC81E0783E2FEC81EF77EC830E94C60F88
:100984000E943C10E0E0E093B3040E94CF0F0E9469
:100994004510442021F40E944E100E944510E0911D
:1009A4008002E03059F4EC81E03009F0A6C0E0E0C8
:1009B400E0936004E0E1E0936B046DC000E812E0B2
:1009C4001A930A93B2D08F01E1E0F0E0E017F10747
:1009D40009F493C0E0E0E093A00418DEE03009F0ED
:1009E4008FC0E091A004E03051F00E94D80F0E9423
:1009F40053100E9458100E94480EE03071F7EC81A9
:100A0400E03021F000240016010609F01FC00E9406
:100A1400C60F0E943C10E1E0E41539F40E945D1019
:100A24000E94CF0F0E94721209F004C00E944E105F
:100A34000E943C10E091A004E03031F4EC81F0E03D
:100A44003197EA93BDD05DC0E8E058C0E091A004BE
:100A5400E03009F452C0F3DC0E944510002E012A54
:100A6400D1F0E0916B04E07109F447C0303069F0D3
:100A7400A091AB04B091AC048091AD049091AE040C
:100A84000E9466100E94721209F001C036C0E1E0B3
:100A9400E093B30495CFE0E0E093A0040E94FC0E41
:100AA4000E946F10E0916B04E07119F0E2E0E093B2
:100AB4009F04A091C004A130D1F4A0919F04A1305F
:100AC400B1F4A091C804B091C9048091CA04909172
:100AD400CB040E94DD0F0E94721249F4A091C2045B
:100AE400B091C3040E94990FEA17FB0709F003C0F1
:100AF400E0E0E093C004E0E004C0E4E0E0938404B8
:100B0400E1E00E94851225960895E981FA81E49135
:100B1400E03041F00E948410A491E881EA1709F4BE
:100B240002C0F3CFE0E0239608950E947E120E9453
:100B340053100E948B1030E008E0AC81BD811D9100
:100B4400AC83BD83103039F43030A9F1E0E0F0E03B
:100B54000E94851280C11F3229F4EC81FD810E941C
:100B6400851279C11E3239F4303029F1083019F573
:100B740038E00BE0E2CF0317F1F0E8E6F0E0FA9397
:100B8400EA931A93C2DFE030B1F41132A0F01038C6
:100B940090F4113610F01B3708F004C00E940410C2
:100BA400B0971E2FA5E5B4E0E32F3F5FF0E0EA0F16
:100BB400FB1F1083C2CFE1E0F0E00E9485124BC11D
:100BC4002F971A930A93FE013696FA93EA930E949A
:100BD40053100E9458100E945F0EE989E03041F0E2
:100BE4000E94321009F076C00E94360F0E941A103B
:100BF4007DDE8F01002E012A39F40E94680F0E94C5
:100C040024100E94381066C01A930A93E0E0EA9315
:100C1400E0E2F0E00E942E101A930A93FE01389647
:100C2400FA93EA930E9458100E945F0EE989E0301B
:100C340081F40E94DD0F0E94901009F04BC00E94C5
:100C44004E100E9445100E944E100E946F10E0E06A
:100C540042C0F8013B96A0E1A0831A930A930E9434
:100C6400111015DE0E94DD0F0E94901099F50E946C
:100C740024100E947E0F43DCE1E0EA9319DE0E9417
:100C840029100E948B10EEE2E0938002E0E1E093F1
:100C94008B020E9429100E941110F9DD0E94961007
:100CA4000E948B10EEE2E093A002E093A102E0E147
:100CB400E093AB02E091B304E03031F00E9496106F
:100CC4000E94C60F0E949B100E94360F0E9452126F
:100CD40038DA01C0E1E019810881629608950E9422
:100CE4009F1039F4A0919F04A13009F42AC30E94F3
:100CF400A5101BC30E949F1039F4A0919F04A23039
:100D040009F41FC30E94A51010C30E94AC1029F45B
:100D14000E94C60F0E947E0F1FC00E94B71030971A
:100D240009F00FC30E940E100E9466100E94750FF6
:100D34000E9467110E94720F0E94B3110E94211237
:100D44000E94641209F0FDC20E94BD100E947E0F31
:100D540090DBE03009F0E9C20E94AD0F81F40E94FB
:100D6400321009F0E2C20E94AC1029F40E94360F3E
:100D74000E94451004C00E94BD100E9438100E94B9
:100D8400360FE093B704F093B8046093B9047093FA
:100D9400BA04B5DB0E94360F0E943C10D2C21A93EB
:100DA4000A93A0919F04A13021F0E3E0E09384042E
:100DB4004CC0EA81FB813097D9F1A7DFE03009F01C
:100DC40044C00E94B710A0E0B2E0AE1BBF0B8D017F
:100DD400AA81BB81A017B10710F40A811B81EC81A1
:100DE400FD813097B9F0FA93EA930E9466100E944D
:100DF40052120E94B710FA93EA931A930A930E942C
:100E0400690AE03011F5F801AC81BD81EA0FFB1FDE
:100E1400EC83FD830E94C610F8010E94CB0E0E9451
:100E2400CF10EA81FB81E01BF10BEA83FB83C1CF86
:100E34000E94C6100E94D8100E94721220F40E94D0
:100E4400E1100E94EA10E0E004C0E0E0E0939F04B7
:100E5400E1E019810881269608951A930A93E09196
:100E6400BF04E03011F4E0E0E2C0E0E0E093BF044E
:100E74000E94DD0F0E94AB0E09F0D8C00E94990FAA
:100E84000E94E60FE058FD4F8F010E94D810D80150
:100E94005C960E9434121A930A930E94C60F0E9411
:100EA4009B100E94DD0F0E9452124BD9C0C02497A0
:100EB400AC81A13019F40E94E11005C0AC81A230CC
:100EC40061F40E94D810AD81BE818F8198850E9403
:100ED4005D11ED83FE836F8378870E94E110AD81FD
:100EE400BE818F8198850E94771268F00E94E1107C
:100EF400AD81BE818F8198850E946C11AD83BE83C4
:100F04008F83988704C00E944E100E94CF100E94C5
:100F1400F6100E94C80E0E94DF0EA130E0E8BE0762
:100F2400E0E08E07E0E09E0730F0E0E0F0E860E00B
:100F340070E00E94C80EE0E0F0E0FA93EA93EA81E0
:100F4400FB81FA93EA932BDFE03019F0E1E00C9493
:100F5400C50B0E94DF0E0E94F6100E946711ED83FC
:100F6400FE836F8378870E94F6100E94641279F6DC
:100F740074DF0E94E1100E947E0FE0E00C94C50B28
:100F84001A930A93A0919F04A13021F0E3E0E09327
:100F9400840448C00E94FB10309721F4E9E0E093F8
:100FA400840440C00E94B710A0E0B2E0AE1BBF0BA7
:100FB4008D010E94FB10E017F10720F400918504D5
:100FC40010918604A2DEE03069F50E94C610F80193
:100FD4000E94CB0EA091B304B091B4048091B504E7
:100FE4009091B6040E94771238F40E94C610F8015A
:100FF4000E94CB0E0E94EA10E0E0F2E0E017F10755
:1010040029F00E9466100E94AB0E61F400938004E4
:10101400109381040E94B710E0938204F093830438
:10102400E0E005C01ADFE0E0E0939F04E1E009910D
:1010340019910895A0919F04A13021F0E3E0E09379
:10104400840421C00E9466100E949010E1F40E9462
:10105400C6100E941F100E94CB0E0E94CF10A091B8
:101064008004B09181040E94FB10EA1BFB0BE09307
:101074008504F09386040E94FB10309719F4EDDE8A
:10108400E03009F45EC1E0E0E0939F044EC1249790
:101094000E944B0F0E94540F18F00E945C0F18F02E
:1010A400E0E00C94250D0E94360F0E94C80E0E94A9
:1010B400680F0E94C50E0E943810E03049F3E1E049
:1010C4000C94250D6D970E947E12E0919F04E030F0
:1010D40021F4E3E0E093840464C02091A1043091FE
:1010E400A2040E94DD0FE887F9876A877B870E9444
:1010F400C60F0E94B60EE1E8EA9330DCE03009F056
:1011040050C00E94A00E0E94A60E0E94AB0E09F0D1
:1011140048C0F9010E94E60FE058FD4F8F01FE011F
:101124003C96FA93EA93F8013B960E940011D80189
:10113400E5EEEC930E940C0FA1F50E94DD0F0E94D6
:10114400AB0E79F50E94990F0E94E60FE058FD4F0F
:101154008F01F8013B96FA93EA93FE013E960E94B2
:1011640000110E94DD0F0E949010D9F4F801E3856C
:10117400E071A9F00E94BB0E0E947E0FC0D90E94AC
:10118400360F0E94AB0E69F40E9496100E946610FE
:101194000E949B100E94360F0E94901011F4E0E010
:1011A40001C0E1E00E948512A196089524971A9344
:1011B4000A930E949F10E9F50E94A00EE09160043A
:1011C400E03021F4E4E0E093840433C00E94DD0FB6
:1011D4000E941A100E94990F0E94E60FE058FD4FDA
:1011E4008F01E0916B04E07171F0E0E0E093A00402
:1011F4000DDAE030F1F4E091A004E03021F0E7E012
:10120400E093840416C00E9424100E94AB0E89F45B
:10121400D801E5EEEC930E9424100E94901049F44A
:101224000E94C60F0E947E0F32DF198108810C9440
:101234006D0EE1E0198108810C946D0EA0919F045C
:10124400A13021F0E3E0E093840423C00E94AC10B9
:1012540049F40E94C60F0E947E0F0E944E100E9405
:1012640045100CC0EFEFFFEF6FEF7FE00E947E0FA1
:101274000E94BD100E943810E03059F408DFE030BD
:1012840041F40E94E1100E94EA10E7DDE03009F425
:1012940058C0E0E0E0939F0448C00E947C122FE90C
:1012A40034E040EC54E001E2D9011C91DA01EC9104
:1012B400D901EC93E12FDA01EC932F5F3F4F4F5F9D
:1012C4005F4F0150003081F70E9483120C946D0E21
:1012D400E0E0E0939F040E944E100E943C10E1E085
:1012E400EA93E0D9E03009F50E945D100E940811EC
:1012F4000E94DA0E1EC0E2E0E41511F4E1E013C02E
:101304000E94E50E0E9408110E94DA0E12C0A091FC
:101314009F04A13039F40E94D8100BC0A0919F04FF
:10132400A13029F0E3E0E0938404E1E008950E9411
:10133400E110E0938004F09381046093820470933D
:101344008304E0E00895E881EEBDEDB5E078E9F3CB
:10135400EEB5E88321960895EFEFEEBDEDB5E078A4
:10136400E9F3EEB508951A930A93E0E0E81531F431
:10137400AE81A13511F0A83509F401C009C0AA81D4
:10138400BB818C819D81E9E00E947A110E941A1030
:101394002A98EE81EA93D7DFED81EA93D4DFEC81DA
:1013A400EA93D1DFEB81EA93CEDFEA81EA93CBDFE4
:1013B400AE81A83411F4E7E801C0E5E9EA93C3DF9C
:1013C40000E0CADF1E2FEF3F19F40F5F0030C9F7AA
:1013D400103019F4AE81AA3709F006C0BDDFE074FD
:1013E4008E2EBADFB9DFB8DF2A9AB6DFE12F198172
:1013F4000881279608951A9310E0E7E70E941211D6
:10140400E9E6EA93E0E0F0E060E070E40E9418119D
:1014140011F4E0E08BC21150103079F7E1E086C29C
:101424001A9388241AE0103019F096DF1150FBCF7C
:10143400E0E40E941211E130B9F410E0E8E4EA9328
:10144400EAEAF1E060E070E00E94181109F011E0AE
:10145400D2DFE03049F4103029F0EAE70E9412119B
:10146400E03011F4E0E062C2E1E060C21A932A9A2B
:10147400E2E5ECBDE0E0EDBD1AE0D2DFE03039F0AA
:101484001150103019F40E941E1150C2F6CFE0E53D
:10149400ECBDEDB5E160EDBDE1E0F0E00E942311AB
:1014A400E0E044C21A930A9300E010E055DFAE2F47
:1014B400EA81EA1721F4E0E019810881D3C0F80138
:1014C40031968F0199F7E1E019810881CBC00E9420
:1014D4007E12E1E5EA93E985FA856B857C850E94B5
:1014E400181161F52A98EEEFEA93DCDFE03031F56C
:1014F40020E032E0022E032AD9F02EDF1E2FEE81E7
:10150400FF81309721F03197EE83FF830EC0EC8189
:10151400FD81309751F03197EC83FD83EC85FD8597
:101524003196EC87FD873197108321503040E2CF0C
:1015340013DF12DF2A9A10DFE0E003C02A9A0E9428
:101544001E110E9485122E9608951A930A93E8E5B7
:10155400EA93EB81FC816D817E810E94181131F543
:101564002A98EEEFEA93EFDE00E012E0002E012A63
:1015740051F0AE81BF81ED91AE83BF83EA93E3DE88
:1015840001501040F3CFEFEFEA93DDDEEFEFEA9383
:10159400DADEE2DEEF71E53049F4EFEFEA9382DF61
:1015A400E03021F42A9AD8DEE0E003C02A9A0E94AF
:1015B4001E111981088128960895E881F9813097D0
:1015C40099F0EA81FB813196EA83FB833197FF939B
:1015D400EF930E949000AF91BF91EC93E881F98161
:1015E4003197E883F983E9CF2EC20E947E1220E866
:1015F40032E00E9490001E2FE5E5F4E0E217F307C5
:1016040049F03F932F932F5F3F4FE12FAF91BF914D
:10161400EC9303C0EBE0E0938404103051F70E9494
:10162400851211C2E881F981309771F0AA81BB81DA
:10163400ED91AA83BB83EA930E949300E881F98128
:101644003197E883F983EECFFEC1E881E03051F0B1
:101654000E948410E491EA930E949300E881E1508F
:10166400E883F3CF2396089522970E947C12092CD5
:101674000A2811F40C94BC0B0E949009E03009F084
:1016840080C00E94360FEF7FF17060707070A0E030
:10169400B2E080E090E00E9457120E9467118F012F
:1016A4009016A10610F4092D1A2D901AA10A0E9471
:1016B40029101A930A930E94D106E03009F061C000
:1016C400E0E8F2E0EE83FF83E885E030D1F1E0E08A
:1016D400E88750918002E0918102E0938002509368
:1016E400810250918202E0918302E093820250933E
:1016F4008302E7E4EA930E9493000E9429100E9467
:1017040027110E942D11EE81FF813496EE83FF8311
:1017140004501040E0918202F0918302A091800273
:10172400B0918102EA1BFB0B31969F012017310710
:1017340010F4890106C0201B310B29153A0508F461
:101744009801EFE4EA930E949300EDB7FEB7319756
:10175400FA93EA931F930F930E9427110F911F91FD
:10176400EE81FF81FA93EA931A930A935BDF0E9456
:101774002D117DCFE0918404E03019F4E4E4E0938A
:1017840084040E94831229960895E1E0EA930E945A
:101794008300E8E7F0E0FA93EA93E0E1EA9355DFA7
:1017A4000895E0918002E03041F40E942910E9E8B4
:1017B400F0E0FA93EA930E947D0E0E947106E030F5
:1017C40009F00895EFEFFFEF9E2EAF2E0E948909D6
:1017D400E03009F008950E94360F0E94311120F480
:1017E40090908004A0908104E4E0F0E09E16AF069F
:1017F40010F49924AA24E1E0EA9336DF08950E94C4
:101804003811E0E0E093800207C00E943C11E091AF
:101814008404E03009F00895C4DF089564971A93AE
:101824000A93E3DEEDB7FEB73197FA93EA931F9379
:101834000F930E943F110F911F910E943811E09164
:101844008404E03009F049C0A0918002AA3329F051
:101854000E947C06E03009F040C0002E012AD1F13C
:101864000E942603E030C9F5E0916004E03011F4F1
:10187400E3E431C0FE013296FA93EA930E94D80F52
:10188400ECE0F0E00E944511FE013E96FA93EA93E3
:10189400ECE7F4E00E94460F0E944511FE017296A7
:1018A400FA93EA93E6E7F4E00E94460F0E9445119A
:1018B400E5E4EA930E949300FE013296FA93EA93D8
:1018C400E4E1F0E0FA93EA93ADDE0E942D110150B9
:1018D4001040C3CFEAE0E09384041981088166963E
:1018E40008951A930E9490001E2F0E943C111536F1
:1018F40019F40E944F0913C0143619F40E94D80831
:101904000EC0103019F40E94710609C0133020F47F
:101914001A930E94B00403C0ECE0E0938404E091C5
:101924008404E03019F4E3E4E09384041991089505
:101934000E943C11E0E0EA930E94B004E6E4EA93DA
:101944000E9483000E948A000E943C11E09184045A
:10195400E03011F40E946408E0918404E03019F44A
:10196400E3E4E0938404089524971A930E9490007A
:101974001E2FFE0131960E94460F0E944911143613
:1019840041F40E948909E03019F018810C947B0E0F
:1019940022C0153641F40E947D09E03019F0188107
:1019A4000C947B0E18C0163641F40E946A09E0308C
:1019B40019F018810C947B0E0EC0E981FA816B81B9
:1019C4007C810E9452121A930E945907E03019F048
:1019D40018810C947B0EE3E4EA930E949300E0E800
:1019E400F4E00E94460FFA93EA931CDEE0E0E093F1
:1019F400840418810C947B0E2497E9E0F0E0FA93B8
:101A0400EA930E943F110E9438110E948909E03034
:101A1400D1F40E94360F0E94C80E0E949009E03053
:101A240091F40E944B0F0E94C50E0E9467110E9400
:101A3400C80E0E94C50E0E94311110F49880A9802E
:101A4400E0E0EA9311DE24960895E5E8F4E0FA93E1
:101A5400EA930E943F110E9438110E94FB103097B4
:101A640019F40E94200926C00E94C207E03009F040
:101A74000895E6E4EA930E949300E0E8F4E0FA9320
:101A8400EA930E9427110E948A00E0918204F09157
:101A94008304E058FD4FFA93EA930E941F100E94BA
:101AA40049110E941C08E03009F008950E94FB10BF
:101AB4003097D1F6E3E4E09384040895289A0E94D1
:101AC4004E1128980E944E11F9CFEFEFEAB9E0E0E9
:101AD400E7B9EDE2E4B9E1E1E5B9E4EFF1E00E9450
:101AE40023110E94A800E03009F0E8DF0E942910C9
:101AF400E8E9F0E0FA93EA930E947D0E0E947106F1
:101B0400E03009F0DBDF0E948909E03009F0D6DF1C
:101B14000E944B0FA730E0E0BE07E0E08E07E0E054
:101B24009E0708F4CBDF0E944B0FA138E0E0BE070C
:101B3400E0E08E07E0E09E0708F0C0DFE0E0F2E0BE
:101B4400FA93EA930E941F10FA93EA930E94D10633
:101B5400E03009F0B3DF0E944E112898AF93EF9361
:101B6400FF93F2E0E6B1EF73A3B1A074EA2BE08136
:101B7400EBB9E6B1EF73A3B1A074EA2BE434B9F77F
:101B8400E081EBB9E6B1EF73A3B1A074EA2BE434BE
:101B9400C9F3E03461F7E081EBB9E6B1EF73A3B1C7
:101BA400A074EA2BE034C9F3E03009F7FF91EF9118
:101BB400AF91289AE0E4EA930E9483000E942D11D9
:101BC4000E941A02E03029F0E2E0EA930E949300B6
:101BD40055C0E2E4EA930E9493000E948A000E94A6
:101BE40090001E2FE0E0E09384040E9404103097DC
:101BF40019F40E94010C3BC0E130A0E0FA0719F48B
:101C04000E94C70B34C0E230A0E0FA0719F40E9426
:101C1400070C2DC0E330A0E0FA0719F40E94100C61
:101C240026C0E430A0E0FA0719F40E94730C1FC028
:101C3400E530A0E0FA0719F40E94B60C18C0E630AB
:101C4400A0E0FA0719F40E94FE0C11C0E730A0E0EE
:101C5400FA0719F40E94270D0AC0E830A0E0FA0739
:101C640019F40E949A0C03C0ECE0E0938404E09120
:101C74008404E03019F0EA930E9483000E94790002
:101C8400EFEFEAB928980C94B00DFFCF66277727B9
:101C940089919991E991F991A991B991009629F0C5
:101CA40001976D9171916717C9F3671B10F4EFEFFA
:101CB4000895E0E009F0E3950895998188810096FC
:101CC40041F0BD81AC81FB81EA8161916D93019703
:101CD400E1F7FD81EC8126960895B981A8811096DB
:101CE40031F0FC81EB816A8161931197E9F7EB8113
:101CF400FC8125960895E991F991A991B991CD01B5
:101D040005900D920020E1F7FC010895E0E8F2E06F
:101D1400FA93EA93EA81FB816C817D810E945212DD
:101D24000895FA93EA930C94690AE0939B04F09360
:101D34009C0460939D0470939E040895E0E0E093F6
:101D44009F04E093C0040895E885F9856A857B853E
:101D540008950E9452120E949800E0300895E88786
:101D6400F9876A877B87F0CFEC83FD836E837F835B
:101D74000895EC81FD816E817F8108956627772720
:101D84000E94481208950E943E1208950E9448122B
:101D94000895662777270E945D110895EADFA091D0
:101DA4008704B09188048091890490918A040895ED
:101DB4000E94B3110E94B81108950E94431208951D
:101DC400E32DF0E00895A0918F04B09190048091E8
:101DD4009104909192040895E0939304F0939404F1
:101DE40060939504709396040895EF5FFF4F6F4FCF
:101DF4007F4F0895E0917C04F0917D0460917E040E
:101E040070917F040895AFEFBFEF8FEF9FEF0E94B3
:101E14004D12089599DF0E9452120E94A300E030EF
:101E24000895E0E8F4E0FA93EA93A0918004B09175
:101E3400810480918204909183040895E0E0F1E0AC
:101E440060E070E00E94EB110895A0918704B091C6
:101E540088048091890490918A040E945D110E94F3
:101E64005212A09180040895E0918004F0918104BD
:101E740060918204709183040895E0E8F0E060E0EA
:101E840070E00E94EB110895FA93EA93E4E0F0E025
:101E94000895A0918004B09181048091820490916E
:101EA40083040895A230E0E0BE07E0E08E07E0E09E
:101EB4009E070895E0918F04F0919004609191043D
:101EC40070919204E6DF0E9477120895E0E0E093B7
:101ED4008004E0938104E0938204E09383040895F2
:101EE400DF01CB016DCFA0919704B091980480914C
:101EF400990490919A040895E0938004F0938104E6
:101F040060938204709383040895A091A304B09114
:101F1400A4048091A5049091A6040E946C120895D3
:101F2400E0E0F0E0E093A104F093A2040895E091CE
:101F3400A104F091A20408950E942F1256DF0E947A
:101F440039120895E091A304F091A4046091A504CA
:101F54007091A604089588DF0E946412089584DFB6
:101F6400E093A304F093A4046093A5047093A604DF
:101F74000E94810279DFE093A704F093A8046093A0
:101F8400A9047093AA040895E091AB04F091AC0401
:101F94006091AD047091AE040895E0919304F091C2
:101FA400940460919504709196040895E0E6F4E039
:101FB400FA93EA930895E091A704F091A80460913C
:101FC400A9047091AA040895EF70F070EE0F0E94B6
:101FD400921108950E945D110E9452120C94A30064
:101FE400A0918704B09188048091890490918A0417
:101FF4000895E0919B04F0919C0460919D0470917C
:102004009E040895E12FF0E00895A0E8B2E0EE0FF9
:10201400FF1FEA0FFB1F0895ABEBB4E08DCFA9DEE1
:102024000E9452120895AA85BB858C859D850895CA
:10203400EA83FB836C837D830895E0918004F091AF
:1020440081040895EA81FB816C817D810895E0E833
:10205400F2E0FA93EA930895FA93EA930C946F0EDC
:10206400E0E0EA930E945403E03008950E94521283
:102074000C94CE03E093BB04F093BC046093BD04C2
:102084007093BE040895E093AB04F093AC046093A2
:10209400AD047093AE040895E0E0F0E060E070E019
:1020A4000895E5E5F4E0FA93EA930895EBE0F0E0AF
:1020B400FA93EA930895A091BB04B091BC04809173
:1020C400BD049091BE040895E091BB04F091BC045A
:1020D4006091BD047091BE040895E093B304F0933D
:1020E400B4046093B5047093B604D6DFE093AF04F0
:1020F400F093B0046093B1047093B204E1E0E09310
:102104009F040895E981FA813196E983FA8331972E
:102114000895E0E2EA93EBE0F0E09ECF0E945212D1
:102124000E94A300E0300895E0EAF2E0FA93EA9313
:1021340008950E9452120C944904E0E0EA930E942C
:10214400B004E0300895E0E0E0939F04E4E0E0931D
:1021540084040895E091AF04F091B0046091B10457
:102164007091B2040E9464120895E091AF04F0915A
:10217400B004F1700895E091B704F091B80460914F
:10218400B9047091BA040895A091AF04B091B00459
:102194008091B1049091B2040895E093AF04F09358
:1021A400B0046093B1047093B2040895E091B30451
:1021B400F091B4046091B5047091B6040895E0916F
:1021C400AF04F091B0046091B1047091B204089529
:1021D400E093B304F093B4046093B5047093B6042D
:1021E400E1E0E093BF040895ED81FE816F8178857D
:1021F4000895E0918504F09186040895FA93EA9392
:10220400E5E1F0E0FA93EA930C945F0EEAE00E94B1
:102214008611EF5FFF4F6F4F7F4F0E94A41160CE76
:10222400EA933ADF0E9452120C94B5090E945212AA
:102234000E94B509E0300895E2E0E0938404E1E00F
:102244000895FA93EA930C945111E2E0F0E0FA93C2
:10225400EA930C94140BE1E4EA930C949300A92DF3
:10226400BA2D882799270E9472120895E1E4EA930F
:102274000C9483000E94F70AF9CFE2E0F0E0FA93AD
:10228400EA930C94DF0AFA93EA930C945F0EFA93A0
:10229400EA930E94DF0AEACFE4E6F0E0D2CFE991C4
:1022A400F991309639F080ED97E00197F1F7A89510
:1022B4003197C9F70895EA0FFB1F681F791F089526
:1022C400AE0FBF1F861F971F0895EA1BFB0B680BF9
:1022D400790B0895AE1BBF0B860B970B0895EA2B61
:1022E400FB2B682B792B0895F195E195F040089527
:1022F400EE230E2EFD01BC0131F0EE0FFF1F661F11
:10230400771F0A94D1F70895EE230E2EFD01BC0128
:1023140031F076956795F795E7950A94D1F7089586
:10232400EE0FFF1FEE0FFF1FEE0FFF1FEE0FFF1F3D
:102334000895F695E795F695E795F695E795F6955C
:10234400E795089576956795F795E7950895E62FAF
:10235400F72F60E070E008956E2F7F2FE0E0F0E04B
:1023640008956F2F660F660B762F08957A9F702D50
:102374006B9F700DF89F700DE99F700D6A9F602D23
:10238400710DFB9F600D711DE89F600D711D882705
:10239400FA9FF02D610D781FEB9FF00D611D781FE2
:1023A400EA9FE02DF10D681F781F08950024112481
:1023B40090E1AA0FBB1F001C111C0E1A1F0A18F46F
:1023C4000E0E1F1E01C0A1609A9599F7FD01D00160
:1023D40008953F934F935F93002411244427552776
:1023E40030E2AA0FBB1F881F991F001C111C441F39
:1023F400551F0E1A1F0A460B570B28F40E0E1F1EEC
:10240400461F571F01C0A1603A9559F7FD01BC0151
:10241400D001CA015F914F913F910895C7DFFD013B
:102424000895E894B7FF04C0A095B09511966894F8
:10243400F7FD5ADFBBDFFD010EF456DF0895C9DF57
:10244400FD01BC010895ED91FC9111970895ED9162
:10245400FD916D917C9113970895ED91FD916D918E
:102464007D910895ED93FD936D937C9308957E93F0
:102474006E93FE93EE930895E881F9816A817B81DE
:102484000895A881B9818A819B810895E883F9839D
:102494006A837B830895A083B183828393830895A1
:1024A4007A936A93FA93EA930895182E862F612DEE
:1024B400192E972F712D1B2EBF2FF12D1A2EAE2FF3
:1024C400E12D0895309760407040089500240A1665
:1024D4000B06089500240A160B060806090608953B
:1024E400EA17FB07680779070895AE17BF07860741
:1024F400970708955A934A933A932A931A930A93FF
:1025040008955D814C813B812A8119810881089558
:00000001FF
